:100000000C9446000C9465000C9465000C946500FB
:100010000C9465000C9465000C9465000C946500CC
:100020000C9465000C9465000C9465000C946500BC
:100030000C9465000C94DB000C9465000C94650036
:100040000C9465000C9465000C9465000C9465009C
:100050000C9465000C9465000C9465000C9465008C
:100060000C9465000C9465000C9465000C9465007C
:100070000C9465000C9465000C9465000C9465006C
:100080000C9465000C9465000C94650011241FBE4F
:10009000CFEFD0E4DEBFCDBF11E0A0E0B1E0E8EDEE
:1000A000F3E000E00BBF02C007900D92A231B10750
:1000B000D9F711E0A2E1B1E001C01D92A931B10769
:1000C000E1F70E94C7010C94EA010C940000CF9361
:1000D000DF9300D01F92CDB7DEB789837B836A831D
:1000E00089818A3031F48A819B81BC018DE00E9434
:1000F000670080EC90E0FC018081882F90E08072A6
:1001000099270097B1F386EC90E02981FC012083C8
:1001100080E090E00F900F900F90DF91CF910895C5
:10012000CF93DF93CDB7DEB781E890E02BE0FC0101
:10013000208388E890E02DE730E0FC0131832083C4
:100140008FE690E022E0FC01208384E890E0FC014F
:100150001182108280910E0190910F01A0911001E7
:10016000B09111018093130190931401A093150194
:10017000B09316018FE590E02FE530E0F901208182
:100180002068FC012083DF91CF910895CF93DF9306
:10019000CDB7DEB781E890E0FC011082DF91CF910E
:1001A0000895CF93DF93CDB7DEB781E0809312013E
:1001B000DF91CF9108951F920F9200905F000F92F0
:1001C000112400905B000F922F933F934F935F9306
:1001D0006F937F938F939F93AF93BF93EF93FF930F
:1001E000CF93DF93CDB7DEB78091130190911401C7
:1001F000A0911501B09116010197A109B109809351
:10020000130190931401A0931501B09316018091EE
:10021000130190911401A0911501B091160100975E
:10022000A105B10591F40E94D10080910E01909139
:100230000F01A0911001B0911101809313019093CF
:100240001401A0931501B0931601DF91CF91FF9196
:10025000EF91BF91AF919F918F917F916F915F913E
:100260004F913F912F910F9000925B000F90009261
:100270005F000F901F901895CF93DF9300D000D0B0
:10028000CDB7DEB769837A838B839C8389819A811A
:10029000AB81BC8180930E0190930F01A09310015C
:1002A000B093110180910E0190910F01A091100166
:1002B000B09111018093130190931401A093150143
:1002C000B09316010F900F900F900F90DF91CF9188
:1002D0000895CF93DF93CDB7DEB78091170190914A
:1002E00018018130910589F08130910538F0823014
:1002F000910591F083309105B1F01CC081E090E050
:1003000090931801809317011AC082E090E09093B7
:1003100018018093170113C083E090E090931801B7
:10032000809317010CC081E090E0909318018093B6
:10033000170105C01092180110921701000080915A
:100340001701909118018130910551F0813091058C
:10035000D0F08230910551F08330910569F014C0DE
:1003600085E290E021E0FC0120830EC085E290E070
:1003700022E0FC01208308C085E290E024E0FC013B
:100380002083000001C00000DF91CF910895CF933A
:10039000DF93CDB7DEB784E290E02FEFFC0120833E
:1003A00085E290E0FC01108268EE73E080E090E06E
:1003B0000E943C010E9490001092180110921701B7
:1003C0000E94690102C010921201809112018823DB
:0803D000D1F3F6CFF894FFCF42
:1003D80000000002000000006700000000000100AB
:0203E800000013
:00000001FF
